{
  "contractName": "VotingContract",
  "abi": [
    {
      "inputs": [],
      "stateMutability": "nonpayable",
      "type": "constructor"
    },
    {
      "inputs": [
        {
          "internalType": "address",
          "name": "owner",
          "type": "address"
        }
      ],
      "name": "OwnableInvalidOwner",
      "type": "error"
    },
    {
      "inputs": [
        {
          "internalType": "address",
          "name": "account",
          "type": "address"
        }
      ],
      "name": "OwnableUnauthorizedAccount",
      "type": "error"
    },
    {
      "anonymous": false,
      "inputs": [
        {
          "indexed": true,
          "internalType": "address",
          "name": "previousOwner",
          "type": "address"
        },
        {
          "indexed": true,
          "internalType": "address",
          "name": "newOwner",
          "type": "address"
        }
      ],
      "name": "OwnershipTransferred",
      "type": "event"
    },
    {
      "anonymous": false,
      "inputs": [
        {
          "indexed": true,
          "internalType": "uint256",
          "name": "partyId",
          "type": "uint256"
        },
        {
          "indexed": false,
          "internalType": "string",
          "name": "name",
          "type": "string"
        },
        {
          "indexed": false,
          "internalType": "string",
          "name": "abbreviation",
          "type": "string"
        }
      ],
      "name": "PartyAdded",
      "type": "event"
    },
    {
      "anonymous": false,
      "inputs": [
        {
          "indexed": true,
          "internalType": "bytes32",
          "name": "voterIdentifierHash",
          "type": "bytes32"
        },
        {
          "indexed": true,
          "internalType": "uint256",
          "name": "partyId",
          "type": "uint256"
        },
        {
          "indexed": false,
          "internalType": "uint256",
          "name": "timestamp",
          "type": "uint256"
        }
      ],
      "name": "VoteCast",
      "type": "event"
    },
    {
      "inputs": [],
      "name": "nextPartyId",
      "outputs": [
        {
          "internalType": "uint256",
          "name": "",
          "type": "uint256"
        }
      ],
      "stateMutability": "view",
      "type": "function",
      "constant": true
    },
    {
      "inputs": [],
      "name": "owner",
      "outputs": [
        {
          "internalType": "address",
          "name": "",
          "type": "address"
        }
      ],
      "stateMutability": "view",
      "type": "function",
      "constant": true
    },
    {
      "inputs": [
        {
          "internalType": "uint256",
          "name": "",
          "type": "uint256"
        }
      ],
      "name": "parties",
      "outputs": [
        {
          "internalType": "uint256",
          "name": "id",
          "type": "uint256"
        },
        {
          "internalType": "string",
          "name": "name",
          "type": "string"
        },
        {
          "internalType": "string",
          "name": "abbreviation",
          "type": "string"
        }
      ],
      "stateMutability": "view",
      "type": "function",
      "constant": true
    },
    {
      "inputs": [
        {
          "internalType": "uint256",
          "name": "",
          "type": "uint256"
        }
      ],
      "name": "partyVotes",
      "outputs": [
        {
          "internalType": "uint256",
          "name": "",
          "type": "uint256"
        }
      ],
      "stateMutability": "view",
      "type": "function",
      "constant": true
    },
    {
      "inputs": [],
      "name": "renounceOwnership",
      "outputs": [],
      "stateMutability": "nonpayable",
      "type": "function"
    },
    {
      "inputs": [
        {
          "internalType": "address",
          "name": "newOwner",
          "type": "address"
        }
      ],
      "name": "transferOwnership",
      "outputs": [],
      "stateMutability": "nonpayable",
      "type": "function"
    },
    {
      "inputs": [
        {
          "internalType": "bytes32",
          "name": "",
          "type": "bytes32"
        }
      ],
      "name": "voters",
      "outputs": [
        {
          "internalType": "bool",
          "name": "hasVoted",
          "type": "bool"
        },
        {
          "internalType": "uint256",
          "name": "voteTimestamp",
          "type": "uint256"
        }
      ],
      "stateMutability": "view",
      "type": "function",
      "constant": true
    },
    {
      "inputs": [
        {
          "internalType": "string",
          "name": "_name",
          "type": "string"
        },
        {
          "internalType": "string",
          "name": "_abbreviation",
          "type": "string"
        }
      ],
      "name": "addParty",
      "outputs": [],
      "stateMutability": "nonpayable",
      "type": "function"
    },
    {
      "inputs": [
        {
          "internalType": "bytes32",
          "name": "_voterIdentifierHash",
          "type": "bytes32"
        },
        {
          "internalType": "uint256",
          "name": "_partyId",
          "type": "uint256"
        }
      ],
      "name": "castVote",
      "outputs": [],
      "stateMutability": "nonpayable",
      "type": "function"
    },
    {
      "inputs": [],
      "name": "getPartyCount",
      "outputs": [
        {
          "internalType": "uint256",
          "name": "",
          "type": "uint256"
        }
      ],
      "stateMutability": "view",
      "type": "function",
      "constant": true
    },
    {
      "inputs": [
        {
          "internalType": "uint256",
          "name": "_partyId",
          "type": "uint256"
        }
      ],
      "name": "getParty",
      "outputs": [
        {
          "internalType": "uint256",
          "name": "id",
          "type": "uint256"
        },
        {
          "internalType": "string",
          "name": "name",
          "type": "string"
        },
        {
          "internalType": "string",
          "name": "abbreviation",
          "type": "string"
        }
      ],
      "stateMutability": "view",
      "type": "function",
      "constant": true
    },
    {
      "inputs": [],
      "name": "getAllParties",
      "outputs": [
        {
          "components": [
            {
              "internalType": "uint256",
              "name": "id",
              "type": "uint256"
            },
            {
              "internalType": "string",
              "name": "name",
              "type": "string"
            },
            {
              "internalType": "string",
              "name": "abbreviation",
              "type": "string"
            }
          ],
          "internalType": "struct VotingContract.Party[]",
          "name": "",
          "type": "tuple[]"
        }
      ],
      "stateMutability": "view",
      "type": "function",
      "constant": true
    },
    {
      "inputs": [
        {
          "internalType": "uint256",
          "name": "_partyId",
          "type": "uint256"
        }
      ],
      "name": "getVoteCount",
      "outputs": [
        {
          "internalType": "uint256",
          "name": "",
          "type": "uint256"
        }
      ],
      "stateMutability": "view",
      "type": "function",
      "constant": true
    },
    {
      "inputs": [
        {
          "internalType": "bytes32",
          "name": "_voterIdentifierHash",
          "type": "bytes32"
        }
      ],
      "name": "hasVoted",
      "outputs": [
        {
          "internalType": "bool",
          "name": "",
          "type": "bool"
        }
      ],
      "stateMutability": "view",
      "type": "function",
      "constant": true
    }
  ],
  "bytecode": "0x608060405260016002553480156200001657600080fd5b5033806200003f57604051631e4fbdf760e01b8152600060048201526024015b60405180910390fd5b6200004a816200026e565b50620000ad6040518060400160405280601681526020017f426861726174697961204a616e61746120506172747900000000000000000000815250604051806040016040528060038152602001620424a560ec1b815250620002be60201b60201c565b6200010f6040518060400160405280601881526020017f496e6469616e204e6174696f6e616c20436f6e6772657373000000000000000081525060405180604001604052806003815260200162494e4360e81b815250620002be60201b60201c565b620001636040518060400160405280600f81526020016e41616d204161646d6920506172747960881b8152506040518060400160405280600381526020016204141560ec1b815250620002be60201b60201c565b620001c56040518060400160405280601381526020017f426168756a616e2053616d616a205061727479000000000000000000000000008152506040518060400160405280600381526020016204253560ec1b815250620002be60201b60201c565b620002066040518060600160405280602281526020016200163560229139604080518082019091526006815265435049284d2960d01b6020820152620002be565b620002686040518060400160405280601781526020017f4e6174696f6e616c2050656f706c6527732050617274790000000000000000008152506040518060400160405280600381526020016204e50560ec1b815250620002be60201b60201c565b62000684565b600080546001600160a01b038381166001600160a01b0319831681178455604051919092169283917f8be0079c531659141344cd1fd0a4f28419497f9722a3daafe3b4186f6b6457e09190a35050565b6000825111620003115760405162461bcd60e51b815260206004820152601a60248201527f5061727479206e616d652063616e6e6f7420626520656d707479000000000000604482015260640162000036565b60008151116200036f5760405162461bcd60e51b815260206004820152602260248201527f506172747920616262726576696174696f6e2063616e6e6f7420626520656d70604482015261747960f01b606482015260840162000036565b60408051606081018252600254815260208101848152918101839052600180548082018255600091909152815160039091027fb10e2d527612073b26eecdfd717e6a320cf44b4afac2b0732d9fcbe2b7fa0cf681019182559251919290917fb10e2d527612073b26eecdfd717e6a320cf44b4afac2b0732d9fcbe2b7fa0cf790910190620003fe908262000516565b506040820151600282019062000415908262000516565b5050506002547f5ec24fdeacff55432963dbd1c38608a26892abe073580e6e8963924bab42d83b83836040516200044e9291906200062a565b60405180910390a26002805490600062000468836200065c565b91905055505050565b634e487b7160e01b600052604160045260246000fd5b600181811c908216806200049c57607f821691505b602082108103620004bd57634e487b7160e01b600052602260045260246000fd5b50919050565b601f8211156200051157600081815260208120601f850160051c81016020861015620004ec5750805b601f850160051c820191505b818110156200050d57828155600101620004f8565b5050505b505050565b81516001600160401b0381111562000532576200053262000471565b6200054a8162000543845462000487565b84620004c3565b602080601f831160018114620005825760008415620005695750858301515b600019600386901b1c1916600185901b1785556200050d565b600085815260208120601f198616915b82811015620005b35788860151825594840194600190910190840162000592565b5085821015620005d25787850151600019600388901b60f8161c191681555b5050505050600190811b01905550565b6000815180845260005b818110156200060a57602081850181015186830182015201620005ec565b506000602082860101526020601f19601f83011685010191505092915050565b6040815260006200063f6040830185620005e2565b8281036020840152620006538185620005e2565b95945050505050565b6000600182016200067d57634e487b7160e01b600052601160045260246000fd5b5060010190565b610fa180620006946000396000f3fe608060405234801561001057600080fd5b50600436106100ea5760003560e01c80638da5cb5b1161008c578063b867bfcc11610066578063b867bfcc1461021d578063c0015bf014610232578063cbbaddf414610245578063f2fde38b1461024e57600080fd5b80638da5cb5b146101dc57806394758218146101f7578063b2c2f2e81461020a57600080fd5b806370651a18116100c857806370651a181461017d578063715018a61461019f57806375a12d72146101a95780638ba769ed146101bc57600080fd5b80631b4613cb146100ef57806337f91f231461012757806360b960e51461016b575b600080fd5b6101126100fd366004610b18565b60009081526003602052604090205460ff1690565b60405190151581526020015b60405180910390f35b610154610135366004610b18565b6003602052600090815260409020805460019091015460ff9091169082565b60408051921515835260208301919091520161011e565b6001545b60405190815260200161011e565b61019061018b366004610b18565b610261565b60405161011e93929190610b77565b6101a76103a7565b005b6101a76101b7366004610bac565b6103bb565b61016f6101ca366004610b18565b60046020526000908152604090205481565b6000546040516001600160a01b03909116815260200161011e565b610190610205366004610b18565b6104eb565b61016f610218366004610b18565b6106af565b610225610713565b60405161011e9190610bce565b6101a7610240366004610d02565b6108a0565b61016f60025481565b6101a761025c366004610d66565b6108b6565b6001818154811061027157600080fd5b6000918252602090912060039091020180546001820180549193509061029690610d96565b80601f01602080910402602001604051908101604052809291908181526020018280546102c290610d96565b801561030f5780601f106102e45761010080835404028352916020019161030f565b820191906000526020600020905b8154815290600101906020018083116102f257829003601f168201915b50505050509080600201805461032490610d96565b80601f016020809104026020016040519081016040528092919081815260200182805461035090610d96565b801561039d5780601f106103725761010080835404028352916020019161039d565b820191906000526020600020905b81548152906001019060200180831161038057829003601f168201915b5050505050905083565b6103af6108f4565b6103b96000610921565b565b6000811180156103cc575060025481105b6104105760405162461bcd60e51b815260206004820152601060248201526f125b9d985b1a59081c185c9d1e48125160821b60448201526064015b60405180910390fd5b60008281526003602052604090205460ff161561046f5760405162461bcd60e51b815260206004820152601d60248201527f566f7465722068617320616c72656164792063617374206120766f74650000006044820152606401610407565b6000828152600360209081526040808320805460ff19166001908117825542910155838352600490915281208054916104a783610de6565b919050555080827f03527ab37810ea1e67b3626147543fe1779458d76981a984fc7e03ed1319c0a8426040516104df91815260200190565b60405180910390a35050565b600060608060008411801561050257506001548411155b61054e5760405162461bcd60e51b815260206004820152601960248201527f496e76616c69642070617274792049442070726f7669646564000000000000006044820152606401610407565b6000600161055c8187610dff565b8154811061056c5761056c610e18565b906000526020600020906003020190508060000154816001018260020181805461059590610d96565b80601f01602080910402602001604051908101604052809291908181526020018280546105c190610d96565b801561060e5780601f106105e35761010080835404028352916020019161060e565b820191906000526020600020905b8154815290600101906020018083116105f157829003601f168201915b5050505050915080805461062190610d96565b80601f016020809104026020016040519081016040528092919081815260200182805461064d90610d96565b801561069a5780601f1061066f5761010080835404028352916020019161069a565b820191906000526020600020905b81548152906001019060200180831161067d57829003601f168201915b50505050509050935093509350509193909250565b600080821180156106c1575060025482105b6107005760405162461bcd60e51b815260206004820152601060248201526f125b9d985b1a59081c185c9d1e48125160821b6044820152606401610407565b5060009081526004602052604090205490565b60606001805480602002602001604051908101604052809291908181526020016000905b8282101561089757838290600052602060002090600302016040518060600160405290816000820154815260200160018201805461077490610d96565b80601f01602080910402602001604051908101604052809291908181526020018280546107a090610d96565b80156107ed5780601f106107c2576101008083540402835291602001916107ed565b820191906000526020600020905b8154815290600101906020018083116107d057829003601f168201915b5050505050815260200160028201805461080690610d96565b80601f016020809104026020016040519081016040528092919081815260200182805461083290610d96565b801561087f5780601f106108545761010080835404028352916020019161087f565b820191906000526020600020905b81548152906001019060200180831161086257829003601f168201915b50505050508152505081526020019060010190610737565b50505050905090565b6108a86108f4565b6108b28282610971565b5050565b6108be6108f4565b6001600160a01b0381166108e857604051631e4fbdf760e01b815260006004820152602401610407565b6108f181610921565b50565b6000546001600160a01b031633146103b95760405163118cdaa760e01b8152336004820152602401610407565b600080546001600160a01b038381166001600160a01b0319831681178455604051919092169283917f8be0079c531659141344cd1fd0a4f28419497f9722a3daafe3b4186f6b6457e09190a35050565b60008251116109c25760405162461bcd60e51b815260206004820152601a60248201527f5061727479206e616d652063616e6e6f7420626520656d7074790000000000006044820152606401610407565b6000815111610a1e5760405162461bcd60e51b815260206004820152602260248201527f506172747920616262726576696174696f6e2063616e6e6f7420626520656d70604482015261747960f01b6064820152608401610407565b60408051606081018252600254815260208101848152918101839052600180548082018255600091909152815160039091027fb10e2d527612073b26eecdfd717e6a320cf44b4afac2b0732d9fcbe2b7fa0cf681019182559251919290917fb10e2d527612073b26eecdfd717e6a320cf44b4afac2b0732d9fcbe2b7fa0cf790910190610aab9082610e7d565b5060408201516002820190610ac09082610e7d565b5050506002547f5ec24fdeacff55432963dbd1c38608a26892abe073580e6e8963924bab42d83b8383604051610af7929190610f3d565b60405180910390a260028054906000610b0f83610de6565b91905055505050565b600060208284031215610b2a57600080fd5b5035919050565b6000815180845260005b81811015610b5757602081850181015186830182015201610b3b565b506000602082860101526020601f19601f83011685010191505092915050565b838152606060208201526000610b906060830185610b31565b8281036040840152610ba28185610b31565b9695505050505050565b60008060408385031215610bbf57600080fd5b50508035926020909101359150565b60006020808301818452808551808352604092508286019150828160051b87010184880160005b83811015610c5157603f19898403018552815160608151855288820151818a870152610c2382870182610b31565b91505087820151915084810388860152610c3d8183610b31565b968901969450505090860190600101610bf5565b509098975050505050505050565b634e487b7160e01b600052604160045260246000fd5b600082601f830112610c8657600080fd5b813567ffffffffffffffff80821115610ca157610ca1610c5f565b604051601f8301601f19908116603f01168101908282118183101715610cc957610cc9610c5f565b81604052838152866020858801011115610ce257600080fd5b836020870160208301376000602085830101528094505050505092915050565b60008060408385031215610d1557600080fd5b823567ffffffffffffffff80821115610d2d57600080fd5b610d3986838701610c75565b93506020850135915080821115610d4f57600080fd5b50610d5c85828601610c75565b9150509250929050565b600060208284031215610d7857600080fd5b81356001600160a01b0381168114610d8f57600080fd5b9392505050565b600181811c90821680610daa57607f821691505b602082108103610dca57634e487b7160e01b600052602260045260246000fd5b50919050565b634e487b7160e01b600052601160045260246000fd5b600060018201610df857610df8610dd0565b5060010190565b81810381811115610e1257610e12610dd0565b92915050565b634e487b7160e01b600052603260045260246000fd5b601f821115610e7857600081815260208120601f850160051c81016020861015610e555750805b601f850160051c820191505b81811015610e7457828155600101610e61565b5050505b505050565b815167ffffffffffffffff811115610e9757610e97610c5f565b610eab81610ea58454610d96565b84610e2e565b602080601f831160018114610ee05760008415610ec85750858301515b600019600386901b1c1916600185901b178555610e74565b600085815260208120601f198616915b82811015610f0f57888601518255948401946001909101908401610ef0565b5085821015610f2d5787850151600019600388901b60f8161c191681555b5050505050600190811b01905550565b604081526000610f506040830185610b31565b8281036020840152610f628185610b31565b9594505050505056fea2646970667358221220a3b76e57c33e7b84eebceb54bd3ca5962e01dd89ed26d9bea7411df5a8e2c63964736f6c63430008140033436f6d6d756e697374205061727479206f6620496e64696120284d61727869737429",
  "immutableReferences": {},
  "source": "// contracts/VotingContract.sol\r\n// SPDX-License-Identifier: MIT\r\npragma solidity ^0.8.9;\r\n\r\nimport \"@openzeppelin/contracts/access/Ownable.sol\";\r\n\r\ncontract VotingContract is Ownable {\r\n\r\n    struct Party {\r\n        uint id;\r\n        string name;\r\n        string abbreviation;\r\n    }\r\n\r\n    struct VoterInfo {\r\n        bool hasVoted;\r\n        uint voteTimestamp;\r\n    }\r\n\r\n    Party[] public parties;\r\n    uint public nextPartyId = 1;\r\n\r\n    mapping(bytes32 => VoterInfo) public voters;\r\n    mapping(uint => uint) public partyVotes;\r\n\r\n    event VoteCast(bytes32 indexed voterIdentifierHash, uint indexed partyId, uint timestamp);\r\n    event PartyAdded(uint indexed partyId, string name, string abbreviation);\r\n\r\n    constructor() Ownable(msg.sender) {\r\n        _addParty(\"Bharatiya Janata Party\", \"BJP\");\r\n        _addParty(\"Indian National Congress\", \"INC\");\r\n        _addParty(\"Aam Aadmi Party\", \"AAP\");\r\n        _addParty(\"Bahujan Samaj Party\", \"BSP\");\r\n        _addParty(\"Communist Party of India (Marxist)\", \"CPI(M)\");\r\n        _addParty(\"National People's Party\", \"NPP\");\r\n    }\r\n\r\n    function addParty(string memory _name, string memory _abbreviation) public onlyOwner {\r\n       _addParty(_name, _abbreviation);\r\n    }\r\n\r\n    function _addParty(string memory _name, string memory _abbreviation) internal {\r\n         require(bytes(_name).length > 0, \"Party name cannot be empty\");\r\n         require(bytes(_abbreviation).length > 0, \"Party abbreviation cannot be empty\");\r\n         parties.push(Party({ id: nextPartyId, name: _name, abbreviation: _abbreviation }));\r\n         emit PartyAdded(nextPartyId, _name, _abbreviation);\r\n         nextPartyId++;\r\n    }\r\n\r\n    function castVote(bytes32 _voterIdentifierHash, uint _partyId) public {\r\n        require(_partyId > 0 && _partyId < nextPartyId, \"Invalid party ID\");\r\n        require(!voters[_voterIdentifierHash].hasVoted, \"Voter has already cast a vote\");\r\n        voters[_voterIdentifierHash].hasVoted = true;\r\n        voters[_voterIdentifierHash].voteTimestamp = block.timestamp;\r\n        partyVotes[_partyId]++;\r\n        emit VoteCast(_voterIdentifierHash, _partyId, block.timestamp);\r\n    }\r\n\r\n    function getPartyCount() public view returns (uint) { return parties.length; }\r\n    function getParty(uint _partyId) public view returns (uint id, string memory name, string memory abbreviation) {\r\n         require(_partyId > 0 && _partyId <= parties.length, \"Invalid party ID provided\");\r\n         Party storage p = parties[_partyId - 1];\r\n         return (p.id, p.name, p.abbreviation);\r\n    }\r\n    function getAllParties() public view returns (Party[] memory) { return parties; }\r\n    function getVoteCount(uint _partyId) public view returns (uint) {\r\n         require(_partyId > 0 && _partyId < nextPartyId, \"Invalid party ID\");\r\n         return partyVotes[_partyId];\r\n    }\r\n    function hasVoted(bytes32 _voterIdentifierHash) public view returns (bool) { return voters[_voterIdentifierHash].hasVoted; }\r\n}",
  "sourcePath": "C:\\Users\\vishn\\Downloads\\truffle-voting-app\\contracts\\VotingContract.sol",
  "compiler": {
    "name": "solc",
    "version": "0.8.20+commit.a1b79de6.Emscripten.clang"
  },
  "schemaVersion": "3.4.16",
  "updatedAt": "2025-05-29T08:30:47.549Z",
  "networkType": "ethereum",
  "devdoc": {
    "errors": {
      "OwnableInvalidOwner(address)": [
        {
          "details": "The owner is not a valid owner account. (eg. `address(0)`)"
        }
      ],
      "OwnableUnauthorizedAccount(address)": [
        {
          "details": "The caller account is not authorized to perform an operation."
        }
      ]
    },
    "kind": "dev",
    "methods": {
      "owner()": {
        "details": "Returns the address of the current owner."
      },
      "renounceOwnership()": {
        "details": "Leaves the contract without owner. It will not be possible to call `onlyOwner` functions. Can only be called by the current owner. NOTE: Renouncing ownership will leave the contract without an owner, thereby disabling any functionality that is only available to the owner."
      },
      "transferOwnership(address)": {
        "details": "Transfers ownership of the contract to a new account (`newOwner`). Can only be called by the current owner."
      }
    },
    "version": 1
  },
  "userdoc": {
    "kind": "user",
    "methods": {},
    "version": 1
  }
}